:020000041000EA
:4000000000400208510100100D000000B501001000000000000000000000000000000000000000000000000000000000B10100100000000000000000B1010010B1010010FB
:40004000B101001099040010B1010010B1010010B1010010B1010010B1010010B1010010B1010010B1010010B1010010B1010010B1010010B1010010B1010010B101001075
:40008000B1010010B1010010B1010010B1010010B1010010B1010010B1010010B1010010B1010010B1010010B1010010B1010010B1010010B1010010B1010010B101001020
:4000C00010B5064C2378002B07D1054B002B02D0044800E000BF0123237010BD0C0400080000000024340010084B10B5002B03D00749084800E000BF07480368002B00D104
:4001000010BD064B002BFBD09847F9E7000000001004000824340010EC0000080000000010B562B60349044801F0F2F9034800F08DF9FEE7DC050008442E001000000810FA
:400140007047EFF3108072B6704780F310887047FFF7F6FF72B6104C104DAC4209DA21686268A368043B02DBC858D050FAE70C34F3E70B490B4A0020521A02DD043A885039
:40018000FCDC094809490860BFF34F8F00F0F8F8FFF7C6FFFEE7000028340010403400100C040008040600080000000808ED00E0FEE7FEE700B504207146084202D0EFF3FD
:4001C000098001E0EFF30880043001F031F9FEE770B56249E0239B00CB580F2213401A00D0329200525807210A40032A05D0042A06D0002A12D15A4814E05A4A106811E062
:400200001A00C0329200554952581F210A40112A06D0132A04D0FA20C00103E0524801E080200002002B36D14C4BB222D2009A5801211140B125ED005A59120F032422405D
:400240005B591B0F1C4207D0444C63591B0F03242340012B02D102E0012300E00023002B01D0002901D1032A4BD13C4BB022D2009D58AD03AD0B3D495958C904C90C9C58CE
:40028000240E01231C40013402F0EEFC6843210002F0EAFC35E0012B33D1304BC822D2009A5801251540C024E4001A59120F03210A401B591B0F194207D028490B591B0F55
:4002C00003210B40012B02D102E0012300E00023002B01D0002D01D1032A12D11F4DC022D200AB587F210B40A958090A1F263140AC58240C3440584302F0B6FC210002F0AA
:40030000B3FCE0239B00154AD3581B0903221340D840144C6060164B1D692D0AFC32154001351969090E013102F09EFCA060290002F09AFC0500E06020610E4BC0180E49E5
:4003400002F092FC20750D4BE818FA21890002F08BFCA061C003E06170BDC0460000264000127A00C000000800366E0184050000000021403F420F0040420F00E703000067
:4003800010B51C4BB021C9005A58520052085A50E02080001A583024A2431A50802252045A501549154A9950A021890104329950FF21134A995081315A5892009208802092
:4003C000C00502435A505A588020000602435A505A58012082435A5000F04CF9FFF7F8FE00F062F800F06AF8064B0022DA605A6010BDC046000026400100020084050000D7
:400400008C050000E00023408023024AD3580320184070470000214010B5FFF792FE084980228C58074B2340074C23438B508823034AD358DB06FAD5FFF787FE10BDC046AF
:4004400000002140FCFF00000100FA0570B50500FFF777FE0400FFF7D7FF032801D1FFF7DBFF0A4AB0239B00D55080215058084B03400848034353508823044AD358DB06EA
:40048000FAD52000FFF761FE70BDC04600002140FCFF00000300FA0510B5024800F0CCFC10BDC0462804000810B5034A60328021042000F083FA10BD2805000810B500F00C
:4004C000E4FF0400074800F061FB074800F0C8FB02220649002000F087FC200000F0D9FF10BDC04628040008102E0010F1000008FEE7C04630B587B04C4BA021C9005A5862
:40050000032082435A504A4990240A59494802400A510A691202120A8024640422430A610A6910400861E022920099580F20814399509958213081439950995880200006BF
:40054000014399500021012000F0D8FC0021022000F0D4FC0021032000F0D0FC0021042000F0CCFC0021002000F0C8FC01A8324903000A0032CA32C312CA12C300F0E6FCAE
:40058000002802D00420FFF7B3FF2C4800F096FD002802D00420FFF7ABFF244C284BE158284A0A40E250E158274A0A40E250E25880252D062A43E250043BE158234A0A40B0
:4005C000E250E158224A0A40E250E258802109020A43E2501F4A11681F4B0B40802149000B431360002000F057FF1C4BE2582A43E250E158012291430A43E2506421002007
:4006000000F02EFF164B4021164A9950902109015858154A0240154802435A508022D200134999509B5807B030BDC0460000264000002140FF00FFFF742E0010400D03001E
:4006400004050000FEFCFFFFFFFF00FFFFF0FFFFFF8FFFFF00002740FFFCFFFF0C05000000000140140C0000FF0000FF00B1010040FF008070B58AB09621002000F0F0FEAE
:4006800000F0C6FE002801D100F0B2FE1A4A516C1A4B0B40E82189010B435364536C1B0AFF2213403A2B07D1134A516C144B0B40E82189010B435364FFF71CFF01AD114C76
:4006C0002A002300143343CB43C243CB43C243CB43C229000C4800F0CBFD2A002300383313CB13C213CB13C213CB13C22900074800F0BEFD0AB070BD00002740FF00FFFFB9
:40070000FFC5FFDF742E0010800232400003324010B583089A00801AC000FF228240D44381400A40072B32D89B001949CB589F46184B196A0C4022431A6228E0154B596A34
:400740000C4022435A6222E0124B996A0C4022439A621CE00F4BD96A0C402243DA6216E00C4B196B0C4022431A6310E0094B596B0C4022435A630AE0064B996B0C40224312
:400780009A6304E0034BD96B0C402243DA6310BDD02E00100000214083089A00801AC000FF228240072B33D89B001A49CB589F46194B1B6A1A40C240D0B22AE0164B5B6A00
:4007C0001A40C240D0B224E0134B9B6A1A40C240D0B21EE0104BDB6A1A40C240D0B218E00D4B1B6B1A40C240D0B212E00A4B5B6B1A40C240D0B20CE0074B9B6B1A40C2401B
:40080000D0B206E0044BDB6B1340C340D8B200E0FF207047F02E001000002140084B9A68084B9A4206D103001033064A9B009858995003E010308000034BC0587047C0466B
:4008400000ED00E00000000800000010F0B583B0041E019170D00023C05E00282DDA636812DB8108374EC03189008F5903221040C000FF252A00824097439A012B001340F7
:4008800083403B438B514BE080B20F220240083A9208063292002C498C466244566803210840C000FF27390081408E4399013B000B4083403343536032E0A178FFF728FF89
:4008C0000023E25E6368002A12DB90081D4EC0308000875903210A40D200FF25290091408F4399012B000B4093403B43835117E092B20F2111400839890806318900124853
:40090000844661444E6803200240D200FF2738009040864398013B000340934033434B60094B9A68094B9A4208D10023E05E0199FFF774FF002002E0054800E0002003B094
:40094000F0BDC04600E100E000ED00E0000000080100560070B505000C000368002B01DA002300E0084B002B0CD1EA60230C04D09B218900054800F02DFD2404240CAC6075
:40098000002000E0004870BD01008A00102F001070B505000C1E03D19A21064800F01AFD2B69002B03DAEB682360002000E0024870BDC046502F001001008A00F8B50400F6
:4009C0000E0015000F283FD8002A10D100290ED10F2804D97C21FF31214800F0FBFC6401204B9C466444204B1C60002037E0002D2CD0002E2CD0F3062CD10F2C04D97C21CC
:400A0000FF31174800F0E6FC6401164B9C466444154F3C607E60BD60F2080021280002F0C7F90021200002F0EBF93A0001CA0021FFF790FF00280FD10B4B1868002102F062
:400A4000DFF900280AD10AE0084808E0074806E0064804E0054802E0054800E00448F8BD902F001000002340B805000803018A0001018A00F0B583B00D001C4B1B68DC6891
:400A8000236883422DD947097B01C01A012383401E00002903D100F0F8FC019001E000230193124B18680368002B01DA002300E00F4B002B0ED16368BF00DF193B683342DC
:400AC00003D133433B60002400E00A4C002102F097F900E0084C002D04D1019800F0D9FC00E0064C200003B0F0BDC046B805000801008A00020188000301880004018A00D2
:400B0000F0B583B00D001C4B1B68DC68236883422DD947097B01C01A012383401E00002903D100F0B2FC019001E000230193124B18680368002B01DA002300E00F4B002B07
:400B40000ED16368BF00DF193B68334203D0B3433B60002400E00A4C002102F051F900E0084C002D04D1019800F093FC00E0064C200003B0F0BDC046B805000801008A008B
:400B8000020188000301880004018A00034B1B68002B01D1014B18607047C046C4050008F0B5474680B404000F0090461E00072803D99A21254800F00DFC254B1B682C2097
:400BC00060431C18FF22150035402560330A13406360330CA3600F2D04D97C21FF311D4800F0F8FB6B011C4A94466344236165680F2D04D9CB214900164800F0EBFB6D0197
:400C0000164B9C4665446561A668330C04D0DA214900104800F0DEFB330C04D0B621FF310C4800F0D7FB3604330C1E43AE604346E36127620023A361069B002B02D0002227
:400C40009B5EA38104BC9046F0BDC046D02F0010C4050008902F00100000234000102340F0B58FB0041E03D13F212E4800F0B2FB6368032B03D941212A4800F0ABFBE36AB0
:400C8000002B03D14521274800F0A4FBE368072B03D94621234800F09DFB236A072B03D94721204800F096FB236B002B03D148211C4800F08FFB07AA1300210061C961C32B
:400CC00021C921C302AD290023001433C1CBC1C141CB41C10821535E0CAE3380079B1933B370089B0D930B9B0A980096A26AE16AFFF756FF2B69E868002200920021FFF7FE
:400D00004FFF216B3000FFF7A1FD0023F25E002A05DB1F231A401E3B9340034A13600FB0F0BDC046D02F001000E100E0F8B505000F0016001C00002A03D1DE21244800F082
:400D400049FB072D03D9DF21214800F043FB072F03D9E0211E4800F03DFB1E4B1B682C2128004843181879435918012213004D68AB401B044568AA4015000269002A21D077
:400D80008F69002F20D11268002A01DA002200E0114A002A1AD132681204120C134333600369DE6001238B614C6204692B0C04D09B218900094800F00DFB2A04120CA260B7
:400DC000002004E0064802E0064800E00548F8BDD02F0010C405000801008A00902F001004028A0007028A0070B504000E001500002904D13C21FF310C4800F0EBFA072CFF
:400E000004D99E214900094800F0E4FA084B1B682C2060431818C369AB4204D9036AAD005E51002000E0034870BDC046D02F0010C40500080A028A0070B582B00400002388
:400E40000193002804D18621FF312B4800F0C2FA2369002B04D1C3214900274800F0BAFA6369002B04D18821FF31234800F0B2FA236A002B04D1C42149001F4800F0AAFABD
:400E80006269D5682B0C1FD01B041360136820690369002B18DA01A9FFF77AFD00280ED1019803681E0CFF221340E269934207D29B00226AD358002B02D0984700E00026F8
:400EC0003100206901F09CFF2D042D0C0FD063691D601B68636A002B03D098470023636203E0A36A002B00D098470023A36163691B6802B070BDC046D02F001004281DD8B0
:400F0000042904D94B1EFF3B9BB2132B18D8FF290CD91F2319400B4A0300C0339B009950D03080000423835000200AE007231940D0308000034BC150002002E0024800E000
:400F4000014870470000264001004A0070B5041E04D1C621FF314D4800F03CFAB023DB004B4AD358002B01DB002500E0494D002D00D088E0484B22689A4204D9EA21490033
:400F8000424800F027FA23689B03990BE3791B068022520413400B43B022D2003C498B50A2883E4B9A4204D9DC21FF31374800F011FA22893A4B9A4204D9EE2149003348E0
:400FC00000F008FAA388DB04D90C23891B04354A13400B43344A2E498B50A37A0F2B04D9F1214900294800F0F5F9E37A0F2B04D9E421FF31254800F0EDF9A289274B9A4212
:4010000004D9F2214900214800F0E4F9A37A0F211940E27A1201FF2313400B43A289120222490A401343A27B1207C02189050A401343B122D20016498B50A379072B04D9D0
:40104000F6214900114800F0C5F9228A144B9A4204D9EE21FF310D4800F0BCF90C4814494658144B1E40A3791B02E022D2001340334343504658104B1E40238A1B04094A21
:40108000134033434350280070BDC046103000100000264003004A00FFFF0300FF1F0000FF0100000000FF018405000000FF1F008C050000FFF8FFFFFFFF00FE70B5050004
:4010C0002D492E4A8B588020000603438B502C0003E0012000F072F9013CB223DB00264AD3585B0701D4002CF3D12349B122D2008858234B03408020800503438B50002D09
:4011000002D00ED0002C0CD01B49B022D2008B588020000603438B5003E0012000F04EF9013CB223DB00144AD358DB0701D4002CF3D1002D0ED0002C0CD10F4AB021C900E6
:4011400053585B005B0853500C4953585B005B0853500BE0084B0221B222D2009950B121C9005A58C020800502435A50002C01D1044800E0002070BD000026408C05000003
:40118000FFFFFFCF02004A00214B984230D00ED8402831D004D800281FD010282AD031E080282BD080235B00984229D02AE0194B984229D007D8A0231B0698420DD0164BBC
:4011C000984212D01EE0154B98420AD0144B984209D0144B984215D101E0002016E0124814E0124812E0124810E0A020C0030DE007480BE00F4809E00F4807E00F4805E0B1
:40120000034803E00E4801E0A420C0037047C04606005200010000F0090000A0040000F0050000F0030000F001005200020052000300520001005000020050000500520041
:40124000FF00520010B5054B1B69002B04DB044B1868FFF799FF00E0024810BD00002340C80500080200500010B5FFF7EBFF10BD00281CD000291CD00F4BC318DB090F4A8F
:40128000944663441B010A680260CA6882620A69C2624A6902638A6842624A6882618A694263CA691A600A6A5A60002002E0044800E003487047C0460000CEBF0010030480
:4012C00001005A0030B5632801D8002400E001241A49E82252008B580325AB4323438B508C58174B23408B50632801D8002400E001241249802252008B580325AB43234369
:401300008B508C580E4B23408B501D2807D93A2807D9572807D9782807D8032006E0002004E0012002E0022000E00420054A13680F218B430343136030BDC0460000214007
:40134000FFFCFFFF0000254030B5182801D8002400E001241649E82252008B580325AB4323438B508C58134B23408B50182801D8002400E001240E49802252008B580325DB
:40138000AB4323438B508C580A4B23408B50102803D9212803D8012002E0002000E00220054A13680F218B430343136030BDC04600002140FFFCFFFF0000254010B5034BE4
:4013C0001B78584300F058F810BDC046D400000801BEFEE770B50D00044C18220100200001F0EEFCA5610020FFF7F2FFD0030008054B802212069A649B6C002B01DB002056
:4014000000E002487047C0460000274003004600054B8022120198585B68FF221A4202D08023DB021843704700002640FEE7C04610B50A4B0268DA6142681A6282685A62A0
:40144000C2689A620269DA6242691A6382695A63C2699A63FFF7EAFF10BDC046D003000810B5002803D00800FFF76EFF02E00800FFF728FF10BDC0460230800803D0013057
:401480000238FCD1C046C0467047EFF3108072B6704780F310887047042805D1094A116804230B4313600CE00006C0239B04184090239B00044AD050024A136804218B4357
:4014C0001360704710E000E000002140002807DB1F23C02218401E3B8340024952008B507047C04600E100E0F822F8230649D20088585B03034006D08B508B580122034B1D
:401500001B680133DA777047000011400006000870B50C000022036805000B6043684B60C3698169E360631CA160DA77038C2382038D2383914200D11B4928002030FFF7FF
:4015400085F91023E25E002A05DB1F231A401E3B9340164A13606368154A5B019B188022216852028A40E9699A60002900D1114928002830FFF76AF91823E05EFFF7A6FFC6
:401580001823E25E002A05DB1F231A401E3B9340064A1360F821F923074A4903DB00D150064B00201C6070BDA917001000E100E000102340E91400100000114000060008C3
:4015C00073B5744D2C68002C00D1E1E0724B734863602378012B02D101F072FAC9E00268002A00DBC6E0002262600E2B00D182E030D8082B6DD016D8042B60D009D8022B9D
:4016000059D0032B00D0ABE0A16A644801F068F858E0062B58D0072B00D0A1E0A16A5F4800F0EAF84EE00B2B5CD009D8092B54D00A2B00D094E0A16A584800F093F941E0CE
:401640000C2B53D00D2B00D08AE0A16A534801F07AF937E0142B6DD018D8112B57D00CD80F2B4CD0102B00D07AE0A16A4B488B890A7C896801F0B1F974E0122B50D0132B5C
:401680006ED1A16A454800F076FF1BE0172B5AD008D8152B52D0162B62D1A16A3F4800F0E3FF0FE0192B57D051D3552B58D1A06A01F044FA06E0394801F044FA02E0A16A8A
:4016C00001F01FF860604DE0A16A344801F0C6F9F8E7A16A00F0D7F8F4E7A16A2F4800F0E5F8EFE7A16A00F083F9EBE7A16A2B4800F036FAE6E7A16A00F0F0FAE2E7A16AA8
:4017000026488B890A68896801F052F92AE0A16A8E688B894A68096801F074F9306021E0A16A1E488B8900938B684A68096801F07DF917E0A16A00F037FFC3E7A16A174886
:4017400000F06AFFBEE7A16A00F084FDBAE7A16A124800F071FEB5E7A06A00F00BFBB1E70F4B63606368002B04D121000B4801F0EDF9606000232B602369E1695801094B32
:40178000C018002902D00121A369994001F038FB73BDC046D805000809003200000011400A0032000000234010B50F4C0F4922685368106801225B015B18D9688240090CA6
:4017C0008A4210D112041A601B68094B4001C0180849FFF7DDF8002805D123689B68002B01D1FFF7EDFE10BD000600080010234000002340D8050008032310B50A7A04002D
:4018000013400200FC3253608023DB01C2184A60096801F0C1F9082300224621200001F0EFF9012360681840FCD110BD37B505001400012A01D1496800E00968069A2800FC
:40184000013C01F0B7F90C236142614100934431083B0022280001F0DFF901236A681A42FCD137BD13B5040001F0A4F90823002200934821043B200001F0CEF901236268FD
:401880001A42FCD113BD0B00F0B587B002A90A001C00E0CCE0C2246814609C6A1A7C00945B6AFFF7C3FF002007B0F0BDF0B54B6989B004900C0003931B074CD14B6A274ACB
:4018C00005938B6A871806930B7C1022C9693800079301F064FA079B039D039E012B1FD1039B9D1B069B5B190793059B5D19002E14D0079B0122009321002B000498FFF7B5
:4019000095FF2B002A0039000498FFF7ABFF10220799380001F043FA103EE1E700201BE0039B591B059B5E18069B5918002DF5D03B003A000498FFF795FF3300079A210024
:4019400004980097FFF772FF10223100380001F026FA103DE4E7024809B0F0BD2040000002003200F0B54B698BB007000E0003931B0736D11C4B1022C31804934B6A049801
:4019800005938B6AC969069301F009FA059A337C0792012B01D1069B0793039C039B1D1B079B5B190993069B5B190893059B5D19002C14D0049B0022009331002B003800D6
:4019C000FFF734FF2B002A0008993800FFF74AFF10220999049801F0E2F9103CDEE7200000E002480BB0F0BD2040000002003200F0B50C004B6987B002930B6A8D6A03938B
:401A0000029B4F6A1B091B01EB18CE6904900593059B9D421BD0039B0022210004980096FFF704FFF16801200ABAB1680BBA00218018594102BA0BBAB360F2603B0029007B
:401A4000039A0498FFF70EFF10351037E0E70F2300200299A2691940116007B0F0BD0200002310B50F32441E1178013A49000B4353701B0A9442F7D1002B04D07922C37B6B
:401A800052425340C37310BDF7B506000F009568546828001022002101F08AF939003000009523000022FFF7C1FE2000FFF7D7FFF7BDF0B5976885B0029015680E001022D3
:401AC00000213800039301F073F90A9C0A9B191B039B5918102C0DD92B003A000298FFF7C1FE00953B00002231000298FFF79EFE103CEBE7F4602200280001F050F905B03C
:401B0000F0BDF0B587B005939368CC680493536806000F00156803930F2C0BD81800FFF79EFF80230F22601C2B55121B2818002101F03EF92B00049A29003000FFF792FEE4
:401B40002B00039A29003000FFF78CFE0095059B002239003000FFF769FE07B0F0BD0000F0B504000D008B6A85B002934B694F6A0393124BC618FFF73FFE114B2900E218DE
:401B80000E4B2000E2500F4B3200E318B3600E4BE3187360FFF778FF039B320000932900029B2000FFF785FF20003B0032002900FFF7A7FF002005B0F0BDC046504000001F
:401BC000204000003040000040400000F0B585B002930B680A9D01934B6806000393936814008F68AB4219D2100000F021FE2B00029A2100300000F023FE2B003A0030006E
:401C0000210000F041FE206AA3681A1A3818002101F0CEF8002336215C2010E0AB4208D9AAB20299380001F0BAF8A36878195A1BEDE72A000299380001F0B1F8EAE7A26886
:401C4000934209D2FA5C019D4A40EA54FA5C039D4240EA540133F2E7200000F0E9FD019A2100300000F062FD0C9B0B9A2100300000F0E6FDA2680C9B21009B183000019A44
:401C800000F002FE200000F0D3FD039A2100300000F04CFD236A019A2100300000F0D0FDA268236A21009B1830000D9A00F0ECFD05B0F0BD70B58024050022000021006801
:401CC00001F076F822006868002101F071F8A8682200002101F06CF870BD0000F0B50B6889B004934B680F6905938B68802206934B69D20107938A23097BDB01C5181A4BFA
:401D000001918221C6188123C9014118DB01C318821800913100040000F020FD8723DB01E2188133FF33E250013BFF3BE3186B608923DB01E318AB60069B32000393059B3A
:401D400029000293049B20000193079B00933B00FFF73CFF2800FFF7ADFF300000F0E1FD002009B0F0BDC0460C450000436C002BFCDB7047F0B58268037985B00292C668A2
:401D800004690768322B09D81F4A990088581F490A007F314C32D25CCD5C02E000252A00280001233B7053190B339C4229D33378002B26D17378012B23D1641BA31A9C468E
:401DC000F3180193013B1B78002B1AD16146330003390391991B8C4603998C4504DA01335978FF29F6D00CE0019900F0C9FF002807D131192A00029800F0C2FF002800D1FB
:401E00003870002005B0F0BD983000101831001070B5040080204005A064E02000020143A164902109020A43A264204A013B1A43A2641F4A04251A43A2641E4A02261A43F0
:401E4000A2641D4A1B03A2641C4AA2641C4AA264A82212061343A3641A4BA3641A4BA3642000FFF783FF194B2000A36400F07BFB284214D1164B2000A364164BA36400F02A
:401E800072FB154B304202D0144AA26405E0144AA264144AA264A364134BA364E0E7134BA36488235B05A36470BDC04600B0001200C0001200D0001200D0003500E0003494
:401EC00000B000340AB0002C09C000300B00003FB0B000250D00003FE0E00025D0D00025DCD00036D0D000260AE0002C0038001370B590248C2564051C438464144C2D0684
:401F00001C438464134C1C4384641C032C43D0258464114CAD0585648464104C84640C0325438564842509010C430D49AD050C430C490A430C49002B07DB0C4E8264013BEC
:401F40008164846485648664F5E7094B836470BD00100012002000120300002C002000300200303A00100037010030032020002507000013F0B5069C1C4F6500013D2F437D
:401F800087641B4F12013D43802785643F0625033D438564174D059E2B4313438364164B01348364154B090333438364144B1A4390235B05234382648364124B8364124B38
:401FC0008364124B1C43124B846433438364114B8364114B1E43114B86640B438364104B1943104B81648364F0BDC0460020001200300012002000332030002430200033D2
:4020000000300020320000370C00001300100012001000371000400310000037010040300000303003000013F8B504000D0008982049214F0143A164410001390F43A76486
:402040001E4F12013943A164010380201C4F00063B4301431343A164069AA364194B079E1343A364184B2D03A364184BA364184B3343A364174BA364174BA364174BA36401
:40208000174BA364174BA064A364174BA164A364164B2000A364FFF769FE154BA364154B1E43154BA664A364144B1D43144BA564A364F8BD001000120020001200300012E5
:4020C0000030003330100033101000211010002510200033232000360040000520200024001000340010002C10100020040000042120303A2030003723003003020000307D
:402100000E000013F0B5040080204005A064C020C0010243A264A022D2011143E022D2011343A164A364802385B00A9A1B021343A364A0230C9A1B021343A364C0230826F6
:402140000B9A1B021343A3640D9A374B0D211343A3640E9B354A013B1A43A264344A20001A43A264334A00961343A3640E9B062201930C23FFF7FEFE2000FFF7F7FD2E4B4B
:402180002000A3642D4B0A27A3642D4BA364FFF7EDFD23002200B821B8331D68AC32AD00AB0C156809061A032D050A432D0DA2640135244AED1AA264ADB2002D1FD00E9BDC
:4021C00020000293052301961A0019000097FFF72BFF2000FFF7CAFD1B4B2000A36400F0C2F9C30709D505220E9B0196029300970D2311002000FFF717FF013DDDE7134B64
:402200000522A3640E9B1100029308230193023300932000013BFFF707FF0D4BA36488235B05A36405B0F0BD005000300090001200D0001200B0001207B0003000900034FE
:40224000B9E00028BEB00020B0B0002100900035002A0013F0B50B6893B09A685D680D92DA68040009921A68EF080E924A680F928A681092CA68002111921A690A925A6912
:402280009B690B920C9380238022DB01C6185201300000F08DFD5F4A6B1E1A43A2645E4A1A43A2645D4A1A43A2645D4A1A43A2645C4A2A43A2645C4A1A43A2645B4A134311
:4022C000A3642A0007231A40511E8A41BF186A1CD1081A400791511E8A4107998A180792099A0E99D2080892099A13405A1E9341089AD31808932300A03318683A0080005A
:40230000800C8000301800F04AFD23009C331868089A8000800C80000D99301800F03FFD230098331868109A8000800C800030180F9900F034FD0A9B002B09D120002B00AE
:4023400008220A21FFF7D4FD2000FFF70FFD0AE02300A8331868079A8000800C800030180A9900F01CFD0C9B002B0ED1304B2000A364082301950093092202330B21FFF76D
:40238000F9FD2000FFF7F2FC0AE02300AC3318683A008000800C800030180C9900F0FFFC0B9B002B09D120002B0008220921FFF72FFD2000FFF7DAFC0AE02300A43318685D
:4023C0003A008000800C800030180B9900F0E7FC0B230393023B029301330193023B00930622013B052120000495FFF78BFE200000F0B4F82300943319683A008900890CE9
:4024000089007118119800F0CAFC0020094BA36413B0F0BD0050001200600012007000120080001200A000120090001200B0001200900035E00F0013F0B50B6889B01A68A8
:402440005D6804921A69040005925A699B690692079380238022DB01C318002152011800039300F0A5FC374A6B1E1A43A264364AEE082A43A264354A1A43A264344A13432F
:40248000A3642A0007231A40511E8A41B6186A1C1340D7085A1E9341FF182300AC331868039B8000800C800032000499C01800F076FC2B000B220D212000FFF719FD2000BD
:4024C000FFF754FC23003A000B27B4331968039B8900890C8900C918059800F060FC1D4B0C22A3640E210D23200001950097FFF741FD2000FFF73AFC2300B8331968039B9A
:402500008900890C8900C9183200079800F047FC2B003A000C212000FFF77AFC2000FFF725FC2300B0331968039B8900890C8900C9183200069800F032FC0020064BA364A7
:4025400009B0F0BD00B0001200D0001200C0001200E0001200C0003500780013802342681A42FCD17047436C002BFCDB9223DB00C05880B27047CB6910B51A0280235B008B
:40258000134001224C69224013438022D20083500B7E103283508423CA68DB00C2500A6A2033C250002010BD862370B504000A69DB00C2500D004A68096800F0EDFA042367
:4025C00000225821200000F01BFB082360681840FCD18923DB00E258AB681A6070BD000073B50C0016001900079A069B050000F0E1FA084B64001C190823A15D0093002248
:40260000043B280000F008FB02236A681A42FCD173BDC0464C320010F0B507000C0000250F4B85B004334E680393039B08225919300000F0A5FB002804D00835802DF4D1C8
:40264000002500E0074DE36838000193A3682278009300213300FFF7C3FF280005B0F0BD4C32001003003100F0B51B4B4C6887B00433039323000D00002620330493203304
:4026800002900593039B08229F193900200000F077FB002812D008223900049800F070FB00280BD008223900059800F069FB002804D00836802EE5D1002600E0074EEB68AE
:4026C00002980193AB682A78009301212300FFF787FF300007B0F0BD4C3200100300310080230A689B00C25081224B6892005B005B0883508B680432DB00DB088350002038
:40270000704770B504000D00C96800F03BFA00225C21200000F06CFA202360681840FCD184239B00E2582B691A6070BD0B0013B51100DA68040000925B6900F049FA0C2378
:402740000193043B00930022043B4C21200000F075FA042362681A42FCD113BD70B504AC40CC2478112C29D010D8012C32D0002C1AD0022C4DD12B4D14354D6280258D608E
:402780000D61403D0D62A025AD002CE0222C35D0322C2BD0122C3CD1234D54354D6280258D600D61503D30E01F4D4D6240258D602C3D0D610D622D35FF3514E01A4D143518
:4027C0004D6240258D600D61243D0D62E4358D61FF3D1FE0144D34354D6240258D600D61203D0D62E0358D61250013E00D4D54354D6280258D600D61643D06E00B4D14357E
:402800004D6280258D600D61603D0D62A025AD008D610225CB60C0239B004E610C704A60C55070BD50330010D0320010D0330010030010B5C068596A1A6900F0B0FA10BD41
:40284000F0B516008D684A6885B000926A1E1A4003900F000192CB619D420ED8AA08920002925C1B320039000398FFF75FFF029BF6182300641B9D42F4D9019A3100009821
:4028800000F08DFA05B0F0BDF0B587B005938C68CB68CF690293631E03931F40382301900D0004924E680093802C01D1DB1800938023781CF355631EDA1B3018002100F037
:4028C00077FA009BBB4209D8320029000198FFF72DFF22000021300000F06AFA059B3419DB00190E221F1170190CE21E1170023C1A0A2270039A2900B35401983200FFF738
:4029000015FF00222B6A9B089B009A4207D0029904988958009109BA81500432F5E707B0F0BD10B5040082680021406800F040FA22690021E06800F03BFA6069A269002174
:4029400000F036FA10BDF0B50B6885B002938B68040003938723DB01C5184E680F7B28220021280000F024FA822181238022C9016118DB01D201E318A2180091200029004D
:402980000197FFF7EBFE2800FFF752FF3300029A29002000FFF754FF3300039A29002000FFF772FF2800FFF7BCFF002005B0F0BD13B50400080011000200200000F0FAF80C
:4029C0000823002200935021043B200000F024F9102362681A42FCD113BD13B5040010001A000300200000F0E5F80C23002200935121043B200000F00FF9102362681A4238
:402A0000FCD113BD13B5040000F0D4F80823002200935221043B200000F0FEF8102362681A42FCD1C0235B00E05816BD13B50400180004AB1B880090200000F0C9F80C23A4
:402A40000193043B00930022043B5321200000F0F5F8102362681A42FCD113BDA023164A9B0070B5C2503F22002604000433C2503C33C6500833C6503E3A0833C2500F4A6B
:402A80001033C2500A68403BC2504A680433C2500D00896800F076F832006021200000F0A7F8402360681840FCD1A2239B00E258EB681A6070BDC0460000033101000100E9
:402AC0001B4B03608023DB01C2181A4BC2501A4B8364B8231B068364B4231B068364B0231B068364AC231B068364A8231B068364A4231B068364A0231B0683649C231B0630
:402B0000836498231B06836494231B06836490231B0683648C231B06836488231B06836484231B06836480231B068364002070470300008084040000000040BC0323037036
:402B400000207047002303601800704730B50B4A030012680132D27F101E00D008481A6A5C6A8A605A6A5B6A5201DD0F23021B0A2B43520F1343CB6030BDC0460006000809
:402B8000010032000F22436C1340062BFBD88023DB0583648164704710B50F24436C2340052BFBD8024B83648164826410BDC0461000004130B50F25446C2C40042CFBD83D
:402BC000024C846481648264836430BD1002004230B50F25446C2C40032CFBD8034C8464816482648364039B836430BD103200430F22436C1340072BFBD8090681647047B2
:402C000010B50F24426C2240072AFBD801229A4009061143816410BD30B50F2403AA1578426C2240072AFBD8012202249A40AC401300090623431943816430BD10B50F2453
:402C4000426C2240072AFBD80224029A0906944001229A40130003222343039CA24013431943816410BD0000002243088B4274D303098B425FD3030A8B4244D3030B8B42C3
:402C800028D3030C8B420DD3FF22090212BA030C8B4202D31212090265D0030B8B4219D300E0090AC30B8B4201D3CB03C01A5241830B8B4201D38B03C01A5241430B8B42A7
:402CC00001D34B03C01A5241030B8B4201D30B03C01A5241C30A8B4201D3CB02C01A5241830A8B4201D38B02C01A5241430A8B4201D34B02C01A5241030A8B4201D30B02E8
:402D0000C01A5241CDD2C3098B4201D3CB01C01A524183098B4201D38B01C01A524143098B4201D34B01C01A524103098B4201D30B01C01A5241C3088B4201D3CB00C01ADE
:402D4000524183088B4201D38B00C01A524143088B4201D34B00C01A5241411A00D20146524110467047FFE701B5002000F006F802BDC0460029F7D076E770477047C046B4
:402D800030B50024A24208D0035D651C0C5DA34201D0181B02E02C00F4E7002030BD002310B59A4203D0CC5CC4540133F9E710BD03008218934202D019700133FAE77047D4
:402DC000030030B5002A0DD00C7801335D1E013A2C700131002CF5D19A189A4202D01C700133FAE730BD0000F8B5C046F8BC08BC9E467047F8B5C046F8BC08BC9E4670473C
:402E000001B40248844601BC604700BF21010008030000000100000001000000000000000503600004000000010000000000000001000000060460000800000098050008F2
:402E4000990400100300000001000000020000001E001B000200000000000000000000000000000002001A00020000001F00540002000000BD060000450004012100070597
:402E80000800000063010000030000000000000000000000680000000000000000000000000000001212000000000000000000000000000000000000000000BA000000005D
:402EC00000000000000000000000000000001D1D300700103C0700104807001054070010600700106C0700107807001084070010B0070010BC070010C8070010D4070010AC
:402F0000E0070010EC070010F80700100408001047656E6572617465645F536F757263655C50536F43365C70646C5C647269766572735C7065726970686572616C5C697072
:402F4000635C63795F6970635F6472762E68000047656E6572617465645F536F757263655C50536F43365C70646C5C647269766572735C7065726970686572616C5C6970E0
:402F8000635C63795F6970635F6472762E63000047656E6572617465645F536F757263655C50536F43365C70646C5C647269766572732F7065726970686572616C2F6970FF
:402FC000632F63795F6970635F6472762E68000047656E6572617465645F536F757263655C50536F43365C70646C5C647269766572735C7065726970686572616C5C69708D
:40300000635C63795F6970635F706970652E630047656E6572617465645F536F757263655C50536F43365C70646C5C647269766572735C7065726970686572616C5C7379AF
:4030400073636C6B5C63795F737973636C6B2E630000000047656E6572617465645F536F757263655C50536F43365C70646C5C647269766572735C70657269706865726189
:403080006C5C737973636C6B5C63795F737973636C6B2E68000000003C32001016320010F031001000000000000000000000000000000000000000000000000000000000E2
:4030C0000000000000000000000000000000000000000000000000000000000029320010033200100000000000000000000000000000000000000000000000000000000020
:403100000000000000000000000000000000000000000000000000000000000000000000CA3100100000000000000000000000000000000000000000000000000000000084
:403140000000000000000000000000000000000000000000000000000000000000000000DD3100100F131300000000000000000000000000001313000000000000000000D6
:40318000000000000000130000000000000000000000000000001314204000000000000000000000000000001C300000000000000000000000000000002000000000000009
:4031C0000000000000000000001C3031300D060960864801650304020605000420302D300D06096086480165030402050500041C3051300D06096086480165030402030558
:403200000004403041300D0609608648016503040202050004303031300D060960864801650304020105000420302D300D06096086480165030402040500041C3021300948
:4032400006052B0E03021A0500041400707172730101010101010101FEFEFEFEFEFEFEFE1F1F1F1F0E0E0E0EE0E0E0E0F1F1F1F1011F011F010E010E1F011F010E010E015C
:4032800001E001E001F101F1E001E001F101F10101FE01FE01FE01FEFE01FE01FE01FE011FE01FE00EF10EF1E01FE01FF10EF10E1FFE1FFE0EFE0EFEFE1FFE1FFE0EFE0E2E
:4032C000E0FEE0FEF1FEF1FEFEE0FEE0FEF1FEF10123456789ABCDEFFEDCBA9876543210F0E1D2C3D89E05C107D57C3617DD703039590EF7310BC0FF11155868A78FF964D3
:40330000A44FFABE67E6096A85AE67BB72F36E3C3AF54FA57F520E518C68059BABD9831F19CDE05B5D9DBBCBD89E05C12A299A6207D57C365A01599117DD7030D8EC2F1516
:4033400039590EF767263367310BC0FF874AB48E111558680D2E0CDBA78FF9641D48B547A44FFABE67E6096A08C9BCF385AE67BB3BA7CA8472F36E3C2BF894FE3AF54FA52E
:40338000F1361D5F7F520E51D182E6AD8C68059B1F6C3E2BABD9831F6BBD41FB19CDE05B79217E13C8373D8CA24D54196699E173D6D4DC89AEB7FA1D829CFF3214D59D67B8
:4033C000CF9F2F58692B6D0FA84DD47B736FE3774289C404A8859D3FC8361D6AADE61211A192D691942131222CF72BFCA35F559FC2644CC86BB8932351B1536F197738965A
:40340000BDEA4059E23E2896E3FF8EA8251E5EBE92398653FC99012BAAB8852CDC2DB70EA22CC581000000000000001000000008C000000048340010C0000008100300005E
:403440000C040008F80100000048E80100127A0000093D0000093D0000093D0004000000A00F00000000D00702FF0000E9000010C10000100000000010B54378FF2B0FD1CD
:4034800000F042F904000121002000F045F9002000F024F8034B9842F9D0200000F044F910BDC0460101880070B504000D000369002B0ADA0B0C03D00549064800F044F942
:4034C0002D042D0C6560002000E0034870BDC04685020000102F001001008A000A4B1B68DA68136883420BD943095901401A0121814052689B009B580B4203D0034802E008
:40350000034800E003487047B80500080101880004018A0000018800C0000FD0084A094B1A600622084B1A603832084B1A60084B18601B68064B1B68002BFBDA7047C0462D
:403540001E1F00400801264018052640040126401C05264070B504000D00214B1B69002B36DB0020FFF7BAFF1E4B984232D000231D4A0021012000F0BFF800282CD10020BC
:40358000FFF7ACFF174B9842F9D100F0BDF80600164A0121164800F0CFF800280DD1002C04D12800FFF7B8FF124C07E000F09CF80400114B9842F9D000E0104C00210020FD
:4035C00000F08AF80028F9D1300000F0ADF804E00A4C02E0094C00E0084C200070BDC0468000234001018800E0000008C80500080000234001005000020050000500520023
:4036000070B5304B1B68002BFBDA2E4BD96802220A43DA60DB68DB071FD52A4EF2681204150C294B1A69120A1204FF2424042240110090241A59120A12060A432A43F26092
:403640001969224A114090252D012943196119590A402A431A511A691B591A4B00225A605B681B4A116904230B431361012801D030BF00E020BF134B1B68002BFBDA114B06
:40368000DB68DB0715D510480269104B1A4014000C4DEA68120C1202FF2109020A4022430261902142581340EA68120E120213434350044BDA6802218A43DA6000225A60B1
:4036C00070BDC046E000234000002140FF00FFFF00ED00E00000000001B40248844601BC604700BF010B001001B40248844601BC604700BF6912001001B40248844601BC24
:40370000604700BF2D0D001001B40248844601BC604700BF8B14001001B40248844601BC604700BF750A001001B40248844601BC604700BF9314001001B40248844601BC9A
:40374000604700BF5509001001B40248844601BC604700BFD51300100000000000000000000000000000000000000000000000000000000000000000000000000000000091
:403780000000000000000000000000000000000000000000000000000000000000000000000000000000000000000000000000000000000000000000000000000000000009
:4037C00000000000000000000000000000000000000000000000000000000000000000000000000000000000000000000000000000000000000000000000000000000000C9
:020000041008E2
:4000000000780408AD0408100D00000015050810150508101505081015050810000000000000000000000000000000001105081011050810000000001105081011050810E6
:4000400011050810110508101105081011050810110508101105081011050810110508101105081011050810110508101105081011050810110508101105081011050810A0
:40008000110508101105081011050810110508101105081011050810110508101105081011050810110508101105081011050810110508103107081011050810110508103E
:4000C0001105081011050810110508101105081011050810110508101105081011050810110508101105081011050810110508101105081011050810110508101105081020
:4001000011050810110508101105081011050810110508101105081011050810110508101105081011050810110508101105081011050810110508101105081011050810DF
:40014000110508101105081011050810110508101105081011050810110508101105081011050810110508101105081011050810110508101105081011050810110508109F
:40018000110508101105081011050810110508101105081011050810110508101105081011050810110508101105081011050810110508101105081011050810110508105F
:4001C000110508101105081011050810110508101105081011050810110508101105081011050810110508101105081011050810110508101105081011050810110508101F
:4002000011050810110508101105081011050810110508101105081011050810110508101105081011050810110508101105081011050810110508101105081011050810DE
:40024000110508101105081011050810110508101105081011050810110508101105081011050810110508101105081011050810110508101105081011050810110508109E
:4002800011050810110508101105081010B5054C237833B9044B13B10448AFF300800123237010BDBC46020800000000E4230810084B10B51BB108490848AFF300800848F0
:4002C000036803B910BD074B002BFBD0BDE81040184700BF00000000C0460208E42308102C4302080000000008B50249024800F081FD08BDA01E08100000664010B588B009
:40030000034604AC006859689A68DB680FC40D490D4800F06FFD00240CE008AB234413F8102C0A4901A801F011F901A9064800F061FD01340F2CF0D90249034800F05AFDB8
:4003400008B010BD4021081000006640F41F081080B562B63F4C404A4049204600F062FD236843F0004323603D493E4801F072F8012001F041F801F0B3F8012001F03CF8F6
:40038000FFF7B2FF0022384B1A60324C3749204600F030FD01223649204600F013FD0AE031490B683348C25401330B6001223049284800F007FD2E4B1A780D2AF0D12A4B6F
:4003C0001B6800212B4AD154102B04D92A49214800F010FDD6E7294F294D3A460021284601F090F8012001F007F8264E3B46214A3146002001F094F8012000F0FDFF154CA8
:400400002149204600F0F6FC2846FFF777FF1F49204600F0EFFC3046FFF770FF1C4D3B4632462946012001F07BF8012000F0E4FF0D4B1B680022EA541649204600F0DAFC9C
:400440002946204600F0D6FC1349204600F0D2FC98E700BF0000664050490208A8210810B8480208782108104C490208FC1F0810E4480208E848020834200810FC48020846
:400480008C4202083C49020898200810B820081028490208D4200810F02008107047EFF3108072B6704780F310887047FFF7F6FF72B6114C114DAC4209DA21686268A3689F
:4004C000043BA2BFC858D050FAE70C34F3E70C490C4A00209142BCBF41F8040BFAE70A480A490860BFF34F8F00F00EF900F0EAF8FFF72EFFFEE70000E82308100024081012
:40050000BC4602088C4902080040020808ED00E0FEE7FEE700B504207146084202D0EFF3098001E0EFF30880043000F0ADFEFEE7704700BF5C4AD2F8803303F00F0303F13F
:40054000D00152F8212002F00702032A04D0042A05D092B9554914E0554A116811E003F1C002514951F8222002F01F02112A06D0132A04D04FF4FA4103E04E4901E04FF40E
:4005800000418BBB484BD3F8902502F00100D3F88825C2F30172D3F8883513F0405F07D0414BD3F88835C3F30173012B02D102E0012300E0002303B108B9032A46D13A488C
:4005C000D0F88025C2F31103D0F88425C2F30C02D0F88005C0F300600130B1FBF2F202FB03F2B2FBF0F131E0012B2FD12E4BD3F8402602F00100D3F80026C2F30172D3F832
:40060000003613F0405F07D0274BD3F80036C3F30173012B02D102E0012300E0002303B108B9032A12D12048D0F8002602F07F02D0F80036C3F30423D0F80006C0F3044078
:4006400002FB01F2B2FBF3F2B2FBF0F1164BD3F88033C3F3011321FA03F215494A601648D0F89030C3F3072301330069000E0130B2FBF0F08860B2FBF3F3CB600B6103F570
:40068000742202F23F220D48A0FB0202C2F387420A7503F2E7330A4AA2FB03239B098B61DB03CB61704700BF0000264000127A009C42020800366E010000214083DE1B4389
:4006C000D34D621008B50F4BD3F8802122F0404242F08042C3F88021D3F8802142F00042C3F88021D3F8802122F00102C3F88021FFF71EFFFFF71EFF00F022F800F028F8A8
:4007000008BD00BF0000264008B5FFF7C8FE074AD2F8883043F47003C2F88830BFF34F8FBFF36F8FFFF7BFFE08BD00BF00ED00E008B5024800F0C4FA08BD00BF0447020895
:4007400008B500221146042000F096F808BD00BF10B500F0F6FD0446074800F06DF9074800F0CEF902220649012000F083FA204600F0EBFD10BD00BFD84602084421081010
:4007800031430208084B9A68084B9A4207D100F11003064A52F8230042F8231070471030034B53F82000704700ED00E0004002080000081000B310B50446B0F90030426856
:4007C000002B08DB5201D2B203F1604303F5614383F8002305E003F00F035201D2B20848C254084B9A68084B9A4207D1B4F90000FFF7C8FF002010BD04487047002010BD79
:4008000014ED00E000ED00E0004002080100560038B50368002B01DA002300E0094B73B90D460446C2600B0C1B0423B14FF41B71054800F019FDA9B2A160002038BD0148E3
:4008400038BD00BF01008A00E821081038B504460D4619B99A21064800F006FD2369002B03DAE3682B60002038BD024838BD00BF2822081001008A000F2840D8F8B51546FF
:400880000E46044682B979B90F2804D940F27B11214800F0E9FC600100F1804000F50C101E4B18600020F8BD5DB366B316F01F0F2BD10F2C04D940F27B11174800F0D4FCF6
:4008C000640104F1804404F50C14144F3C607E60BD60F2080021284600F030FE0021204601F0D6FA3A4652F8040B0021FFF790FF68B90021386801F0CBFA50B9F8BD0848B3
:4009000070470748F8BD0648F8BD0548F8BD0548F8BD0448F8BD00BF682208105848020803018A0001018A002DE9F0411B4B1B68DC68236883422CD90D464609A0EB461083
:40094000012303FA00F819B900F0FBFC074600E00027124B18680368002B01DA002300E00F4B83B9626852F8263018EA030F05D148EA030342F82630002400E0094C0021D4
:4009800001F086FA00E0084C25B9384600F0DDFC00E0064C2046BDE8F08100BF5848020801008A00020188000301880004018A002DE9F0411B4B1B68DC68236883422CD95C
:4009C0000D464609A0EB4610012303FA00F819B900F0B7FC074600E00027124B18680368002B01DA002300E00F4B83B9626852F8263018EA030F05D023EA080342F82630B0
:400A0000002400E0094C002101F042FA00E0084C25B9384600F099FC00E0064C2046BDE8F08100BF5848020801008A00020188000301880004018A00024B1B680BB9014BD2
:400A400018607047644802082DE9F8430446884691461E46089F072803D99A21244800F003FC244B1B682C2000FB04F01C18F5B21D50C6F307236360360CA6600F2D04D9A9
:400A800040F27B111C4800F0EFFB6D0105F1804505F50C15256165680F2D04D94FF4CB71154800F0E1FB154B03EB45156561A668330C1B0423B14FF4DA710F4800F0D4FB90
:400AC000330C1B0423B140F2B5110B4800F0CCFBB3B243EA0646AE60C4F81C90C4F820800023A36117B1B7F90030A381BDE8F883A822081064480208682208100010234052
:400B0000F0B58FB0044618B93F212C4800F0ACFBA369072B03D94321284800F0A5FBE36A1BB94521254800F09FFBE368072B03D94621224800F098FB236A072B03D947219F
:400B40001E4800F091FB236B1BB948211B4800F08BFB07AE04F114050FCD0FC62F6802AD26460FCE0FC533682B60079B1933ADF83030089B0D93A26AE16A0CAD00953B4696
:400B80000A98FFF761FF00210091069B0A460598FFF75AFF216B2846FFF70CFEBDF93030002B08DB590903F01F03012202FA03F3034A42F821300FB0F0BD00BFA82208101F
:400BC00000E100E0F8B507460E461D4614461AB9DE21224800F048FB072F03D9DF211F4800F042FB072E03D9E0211C4800F03CFB1B4B1B682C2202FB073002FB06367368F8
:400C0000012202FA03F31B04476802FA07F70269EAB1B169E9B91268002A01DA002200E0104AC2B92288134323600369DC600123B361756204693B0C1B0423B14FF41B710F
:400C4000094800F011FBBAB2A2600020F8BD0748F8BD0748F8BD0648F8BD00BFA82208106448020801008A006822081004028A0007028A0070B5044615460E4621B940F208
:400C80003B110C4800F0F0FA072C04D94FF49E71084800F0E9FA084B1B682C2202FB0434E369AB4204D9236A43F82560002070BD024870BDA8220810644802080A028A0087
:400CC00070B582B000230193044620B940F28511264800F0C9FA236923B94FF4C371234800F0C2FA636923B940F287111F4800F0BBFA236A23B94FF4C4711C4800F0B4FA83
:400D00006369DD682A0C1CD012041A601B6820690369002B15DA01A9FFF798FD60B9019803681E0CDBB2E269934206D2226A52F8233013B1984700E000263146206901F09A
:400D4000A7F8ADB275B16369ADB21D601B68636A1BB198470023636202E0A36A03B198470023A36163691B6802B070BDA822081010B4D0F8003303F00F03072B06D9002313
:400D80000DE0D0F84043CC54013300E000239342F7D306E0D0F8404321F8134001339342F8D35DF8044B704710B51446D0F80833C3F308039A4200D31C462246FFF7D8FF10
:400DC000204610BDF8B507460D461446D0F8006306F00F060BE0224629463846FFF7E4FF072E01D9430000E003461D44241A002CF1D1F8BD30B4036813F4006F01D08022D5
:400E000000E04022002408E0D0F80832C3F308039A42F9D0C0F8405201340D5D002DF3D130BC704770B5054610B9002900F0A4819E4B9D4200F0A28116460C460B78022BCF
:400E400003D942219A4800F00FFA637B023BDBB2062B03D94321964800F006FAA37B3BB1022B05D0032B03D04421914800F0FCF994F82130012B03D945218D4800F0F4F944
:400E800094F82830012B03D94621894800F0ECF92378012B06D86368083B082B94BF0023012307E0A37F2BB16368013B062B94BF002301231BB148217D4800F0D5F9A3683F
:400EC000053B042B03D94921794800F0CDF96369FF2B03D94A21764800F0C6F9A369FF2B03D94B21724800F0BFF9A37C6BB1237833B9A368092B05D1A37B2BB1012304E063
:400F0000012302E0012300E000231BB14D21684800F0AAF9636B23F4366323F00D031BB14F21634800F0A0F9E36B23F4EE6323F003031BB150215E4800F096F92378022BFD
:400F400001D1A37F13B16268013A00E00022237F13B14FF4803000E00020A168082902D84FF4006300E00023034302F00F02134343F000732B60236B2A6812F4006F01D066
:400F8000802200E04022934203D36521484800F06BF9A36B2A6812F4006F01D0802200E04022934203D36621414800F05DF9636A2A6812F4006F01D0802200E0402293420F
:400FC00003D367213A4800F04FF923781B0603F040732B64637F0BB1402200E00022A17C11B14FF4806300E000231343227C12B14FF4807200E000221343627C12B14FF4B6
:40100000007200E000221A43E36A013B1B0403F470231343627B013A02F007021343A27B120102F030021343AB64237B13B14FF4807200E00022E17B21B92378022B03D1CA
:40104000012302E0012300E0002313B14FF4007300E000231A43A368013B03F00F031343C5F80033227DA3691B0403F47F031343C5F81033E26AD5F8003303F00F030333B7
:401080009A4201D3102A03D97D21094800F0ECF8E37F23B12378012B03D0002302E0002300E0012333B14FF4807204E0000069406C2308100022637B013B03F007031A43C8
:4010C000A37B1B0103F0300313436B64237B13B14FF4807200E00022A368013B03F00F0313432278012A02D14FF4803200E000221343C5F8003294F83030C5F8043394F8F0
:40110000203013B14FF0007100E0002194F82120012A02D14FF0807300E000230B4394F82820012A02D14FF4803200E00022134394F8242013432B6594F83830C5F80432E0
:40114000636B23F4926323F002031B051B0DC5F8C83FE36B23F08C035B055B0DC5F8883F76B1002070603060B060F0603062F0623063044B736370BD034870BD024870BD76
:40118000002070BDEFCDAB000160AA001F4B98422DD00CD840282ED003D8E8B1102828D02FE0802829D0B0F5807F28D029E0184B984228D006D8B0F1204F0DD0154B9842B2
:4011C00012D01EE0144B98420AD00133984209D0023B984215D101E0002070470F4870470F4870470F4870474FF4A0007047074870470D4870470D4870470D487047034827
:4012000070470C4870474FF4A400704706005200010000F0090000A0040000F0010052000200520003005200010050000200500005005200FF00520008B5054B1B69002B65
:4012400004DB044B1868FFF7A1FF08BD024808BD20002340684802080200500008B5FFF7EBFF08BD01BEFEE738B50D46044C18220146204600F08EF9A5610020FFF7F2FFC6
:4012800028460208FEE700BF08B50268254BDA6142681A6282685A62C2689A620269DA6242691A6382695A63C2699A631E4A916AD963D16A1964516A5964516B9964926B2A
:4012C000DA64F1EE103A13F0900F27D0026A154B1A65426A5A65826A9A65C26ADA65026B1A66426B5A66826B9A66C26BDA66026C1A67426C5A67826C9A67C26CDA67026D03
:40130000C3F88020426DC3F88420826DC3F88820C26DC3F88C20026EC3F89020FFF7B2FF08BD00BF2846020800ED00E0000000000230800803D001300238FCD100BF00BFCE
:401340007047EFF3108072B6704780F3108870470A4B0B4A196810B58B690C695B019B180122D868A24080B2824205D11A601B68CB69002B00D0984710BDC046A848020852
:40138000001023404369074A5B019B189A680369012098400300100C181A42424241D0B27047C046001023400E4B10B51C682000FFF7E8FF002810D0236958010A4BC01884
:4013C0000369002B0BDB0121636922009940FFF71FFA031E04D0054B02E0054B00E0054B180010BDA848020800002340040032000600320007003000114B70B51C680500E0
:40140000002C16D02378002B13D02000FFF7BAFF002810D023690B4A5B019B18002D03D11B69002B09DB02E01A69002AFCDB606804E0054802E0054800E0054870BDC046A8
:40144000A84802080000234008003200060032000700300070B505000C0001266B6800684B61AB6808618B616B694001CB61AB890B84154B0021C01800F00AFD26702000B0
:40148000FFF780FF00281DD0E369002B16D028000E490C30FFF78EF9A3690D4A5B019B18320021698A4092B29A602023E25E002A04DB1F2313409E40064B1E60064B002098
:4014C0001C6000E0054870BD00002340511308100010234000E100E0A84802080600320010B500220124064B1B681C709A62FFF75BFF002802D12000FFF77EFF10BDC046B8
:40150000A848020810B50724044B1B681C709A6210601172FFF748FF10BDC046A848020870B50825044C24682570A362187459629A62FFF739FF70BDA8480208024403467B
:40154000934202D003F8011BFAE770470EB400B59CB04FF402711DABADF81410029006906FF000410A48049107914FF6FF7153F8042BADF816100068019302A900F076F8C5
:40158000029B00221A701CB05DF804EB03B070472043020810B5034642B111F8014B03F8014B013A002CF7D11A4400E010BD934202D003F8014BFAE710BD2DE9F0478E6845
:4015C0009E4282460C46914698463ED88A8912F4906F3AD0256809696F1A6569022305EB450595FBF3F57B1C43449D4238BF1D4653050FD5294600F08FFB064698B13A4646
:40160000216900F015FBA38923F4906343F08003A38113E02A4600F0DDFB064670B92169504600F02BFB0C23CAF80030A38943F04003A3814FF0FF30BDE8F087266165617C
:401640003E44ED1B2660A5604646464528BF464632464946206800F0F6FAA3689B1BA36023681E4426600020BDE8F0872DE9F04F9DB0804603938B891C060D4616460DD524
:401680000B695BB9402100F047FB2860286118B90C23C8F80030CDE040236B610023099320238DF82930DFF89CB130238DF82A3037463C4614F8013B1BB9B7EB060910D050
:4016C00003E0252BF9D02746F3E74B46324629464046FFF772FF013000F0A780099B4B4409933B78002B00F0A08000234FF0FF3204930793059206938DF853301A9301266D
:40170000052221784E4800F043FA671C049B38B14B4A801A06FA00F0184304903C46EFE7D90644BF20228DF853201A0744BF2B228DF8532022782A2A03D0079A00210A2083
:401740000BE0039A111D12680391002A10DA524243F00200079204900BE0274601343B78303B092B03D800FB02320121F5E701B107923B782E2B1ED17B782A2B0AD1039BAD
:401780001A1D1B680392002BB8BF4FF0FF330237059310E000230593781C19460A24074601303A78303A092A03D804FB01210123F5E703B1059103223978224800F0E8F906
:4017C00040B14023CBEB000003FA00F0049B18430490013739781C488DF8281006227E1C00F0D6F988B1194B33B9039B073323F007030833039314E003AB00932A46144B86
:4018000004A94046AFF3008007E003AB00932A460F4B04A9404600F093F8B0F1FF3F824603D0099B5344099342E7AB895B0601D4099801E04FF0FF301DB0BDE8F08F00BF2F
:40184000AE230810B4230810B823081000000000BB1508102DE9F04791461F460A698B68DDF820809342B8BF1346C9F8003091F8432006460C4612B10133C9F800302368BE
:40188000990642BFD9F800300233C9F80030256815F0060510D104F1190A07E00123524639463046C04701301AD00135E368D9F800209B1A9D42F1DB94F843302268003383
:4018C00018BF012392060FD5E1185A1C302081F84300224494F8451082F84310023303E04FF0FF30BDE8F08704F1430239463046C0470130F4D02268D9F80050E36802F02D
:401900000602042A08BF5D1B2269A3680CBF25EAE57500259342C4BF9B1AED184FF000091A344D4509D00123224639463046C0470130D5D009F10109F3E70020BDE8F087B8
:401940002DE9F04317460A7E85B06E2A984606460C460C9B01F1430E00F0AE8011D8632A22D009D8002A00F0BB80582A40F0CA8081F84520834955E0642A1ED0692A1CD074
:40198000C0E0732A00F0B08009D86F2A2ED0702A40F0B8800A6842F020020A603EE0752A24D0782A3AD0ADE01A6801F14205111D1960136884F84230A8E021681A6811F0D7
:4019C000800F02D0111D196008E011F0400F02F10401196002D0B2F9003000E01368002B3CDA2D225B4284F8432037E021681A6811F0800F02D0111D196007E011F0400FC0
:401A000002F10401196001D0138800E01368227E5C496F2A14BF0A2208221BE078225A4984F845202268186812F0800F00F104051D6003D1550601D5038800E00368D0078A
:401A400044BF42F0200222601BB9226822F0200222601022002084F8430001E049490A226568A560002D08DB206820F0040020602BB9002D7DD175460CE0002B79D0754696
:401A8000B3FBF2F002FB1033CB5C05F8013D03460028F5D1082A0BD12368DA0708D5236962689A42DEBF302305F8013C05F1FF35C5EB0E0323612EE008681A68496910F0E9
:401AC000800F03D0101D1860136808E010F0400F02F104001860136801D0198000E0196000232361754616E01A68111D1960156862680021284600F04BF808B1401B606022
:401B0000636804E004F1420584F8422001232361002384F84330CDF800803B4603AA21463046FFF797FE013002D14FF0FF3026E023692A4639463046C0470130F5D0236856
:401B40009B0710D5002504F1190907E001234A4639463046C0470130E7D00135E368039A9B1A9D42F2DBE068039B9842B8BF184605E00B7884F8423004F142058AE705B057
:401B8000BDE8F083BF230810D02308100000000001F0FF01102A2BDB10F0070F08D010F8013B013A8B422DD010F0070F42B3F6D1F0B441EA012141EA014122F007047FF0E4
:401BC00000070023F0E80256083C85EA010586EA010685FA47F5A3FA87F586FA47F6A5FA87F68EB9EED1F0BC01F0FF0102F0070232B110F8013B013A83EA010313B1F8D1B0
:401C00000020704701387047002D06BF35460338073815F0010F07D1013015F4807F02BF013015F4C03F0130F0BC0138704700BF10B5431E0A44914204D011F8014B03F8DF
:401C4000014FF8E710BD884210B501EB020301D8421E0BE09842FBD28118D21AD34204D013F8014D01F8014DF8E710BD994204D011F8014B02F8014FF8E710BD38B5054631
:401C8000002946D051F8043C0C1F002BB8BFE41800F0D6F81F4A1368114613B96360146032E0A3420ED92268A018834204BF18685B68636004BF121822600C6024E0A24226
:401CC00003D813465A68002AF9D118681918A1420BD12168014458188242196014D1106852685A60014419600EE002D90C232B600AE021686018824204BF10685268626097
:401D000004BF091821605C602846BDE8384000F098B838BDB048020870B5CD1C25F0030508350C2D38BF0C25002D064601DBA94202D90C23336046E000F082F8234B1C6898
:401D40001A462146A1B10B685B1B0ED40B2B03D90B60CC18CD501EE08C420DBF63684B686360136018BF0C4615E00C464968E9E7174C23681BB9304600F052F82060294663
:401D8000304600F04DF8431C18D0C41C24F00304A0420DD12560304600F053F804F10B00231D20F00700C31A0ED05A42E25070BD211A304600F034F80130EBD10C233360B7
:401DC000304600F03EF8002070BD00BFB0480208AC480208F8B5074615460E4621B91146BDE8F840FFF798BF1AB9FFF747FF2846F8BD00F027F885420ED929463846FFF765
:401E00008BFF044650B131462A46FFF711FF31463846FFF733FF01E03046F8BD2046F8BD38B5064C002305460846236000F014F8431C02D1236803B12B6038BD8849020856
:401E40007047704751F8040C0028BEBF091851F8043CC01804387047044A05491368002B08BF0B461844106018467047B448020890490208F8B500BFF8BC08BC9E467047DE
:401E8000F8B500BFF8BC08BC9E4670470000000001B40248844601BC604700BF614302080D0A5F5F5F5F5F5F5F5F5F5F5F5F5F5F5F5F5F5F5F5F5F5F5F5F5F5F5F5F5F5FD0
:401EC0005F5F5F5F5F5F5F5F5F5F5F5F5F5F5F5F5F5F5F5F5F5F5F5F5F5F5F5F5F5F5F5F5F5F5F5F5F5F5F5F5F5F5F5F5F5F5F5F0D0A2A0909434532323034363520505341
:401F00006F4320362043727970746F6772617068793A204145532044656D6F6E7374726174696F6E0D0A2A0D0A2A09496620796F75206172652061626C6520746F207265F6
:401F4000616420746865207465787420746865207465726D696E616C20636F6E6E656374696F6E20697320636F6E66696775726564200A0D2A09636F72726563746C790D99
:401F80000A2A0D0A2A09426175642052617465203A2039363030206270730D0A2A0A0D0A5F5F5F5F5F5F5F5F5F5F5F5F5F5F5F5F5F5F5F5F5F5F5F5F5F5F5F5F5F5F5F5F8B
:401FC0005F5F5F5F5F5F5F5F5F5F5F5F5F5F5F5F5F5F5F5F5F5F5F5F5F5F5F5F5F5F5F5F5F5F5F5F5F5F5F5F5F5F5F5F5F5F0D0A0000000030782532582000000D0A0A45DB
:402000006E74657220746865206D65737361676528206E6F74206D6F7265207468616E2031362063686172616374657273293A0D0A0A00000D0A0A4D657373616765207386
:40204000697A65206578636565647320313620636861726163746572732120506C6561736520656E7465722061206D657373616765206F66206E6F74206D6F7265200D0A81
:402080007468616E2031362063686172616374657273200D0A0000000D0A0A4B6579207573656420666F7220456E6372797074696F6E3A0D0A0000000D0A526573756C74C3
:4020C000206F6620456E6372797074696F6E3A0D0A0000000D0A526573756C74206F662044656372797074696F6E3A0D0A0A00000D0A5F5F5F5F5F5F5F5F5F5F5F5F5F5FDF
:402100005F5F5F5F5F5F5F5F5F5F5F5F5F5F5F5F5F5F5F5F5F5F5F5F5F5F5F5F5F5F5F5F5F5F5F5F5F5F5F5F5F5F5F5F5F5F5F5F5F5F5F5F5F5F5F5F5F5F5F5F5F5F5F5FDF
:402140000D0A000003000000010000000100000000000000050360000400000001000000000000000100000006046000080000003848020831070810030000000100000085
:40218000020000001B000000020000000000000000000000000000001A000000020000005400000002000000000000000C0000000800000000020000000000000000000078
:4021C00000000000000000000000000000000000000000000B0000000000000000000000000000000000000047656E6572617465645F536F757263655C50536F43365C70C2
:40220000646C5C647269766572735C7065726970686572616C5C6970635C63795F6970635F6472762E68000047656E6572617465645F536F757263655C50536F43365C702D
:40224000646C5C647269766572735C7065726970686572616C5C6970635C63795F6970635F6472762E63000047656E6572617465645F536F757263655C50536F43365C70F2
:40228000646C5C647269766572732F7065726970686572616C2F6970632F63795F6970635F6472762E68000047656E6572617465645F536F757263655C50536F43365C7034
:4022C000646C5C647269766572735C7065726970686572616C5C6970635C63795F6970635F706970652E630047656E6572617465645F536F757263655C50536F43365C7010
:40230000646C5C647269766572735C7065726970686572616C5C7363625C63795F7363625F756172742E680047656E6572617465645F536F757263655C50536F43365C70C4
:40234000646C5C647269766572735C7065726970686572616C5C7363625C63795F7363625F636F6D6D6F6E2E6800000047656E6572617465645F536F757263655C50536FFC
:4023800043365C70646C5C647269766572735C7065726970686572616C5C7363625C63795F7363625F756172742E63004300232D302B2000686C4C006566674546470030B4
:4023C0003132333435363738394142434445460030313233343536373839616263646566000000000000000000000810004002088C020000082408108C4202089C0300005E
:40240000BC460208D0020000AABBCCDDEEFFFFEEDDCCBBAAAABBCCDD0048E80100127A0000093D0000127A0000127A0008000000401F00000000A00F02FF00000000000088
:4024400000000000000000000000000000000000000000000000000000000000AC230810000000000000000000000000000000000000000000000000000000000000000075
:4024800000000000000000000000000000000000000000000000000000000000C0420208B10208108D020810000000004378FF2B11D110B500F03EF904460121002000F06F
:4024C00069F9002000F022F8034B9842F9D0204600F040F910BD70470101880038B50369002B0DDA0D4604460B0C1B0423B140F28521044800F03EF9A9B26160002038BD34
:40250000014838BDE821081001008A000B4B1B68DB681A6882420CD94109A0EB4110012202FA00F05B6853F82130184203D004487047044870470448704700BF5848020837
:402540000101880004018A0000018800C00012D0094A0A4B1A60062203F582631A603E22A3F214431A6003F5836318601B68044B1B68002BFBDA70471E1F00400801264062
:402580001C05264070B5204B1B69002B35DB0D4604460020FFF7BAFF1C4B98422FD000231B4A0121184600F0BDF850BB0020FFF7ADFF164B9842F9D100F0BCF80646154ACB
:4025C0000121154800F0DEF860B924B92846FFF7BDFF124C07E000F0B5F80446104B9842F9D000E00F4C0021084600F0BBF80028F9D1304600F0AEF804E00A4C02E0094C9A
:4026000000E0084C204670BD6000234001018800BC4202086848020820002340010050000200500005005200394B1B68002BFBDA30B4374BDA6842F00102DA60DB6813F0E3
:40264000020F20D0324DEB689CB232490A69120A120402F47F02D1F890301B0A42EA03632343EB600B6923F47F4343F410630B61D1F8903023F47F4343F41063C1F89030C9
:402680000B69D1F89030224B00225A605B68224A136943F004031361012801D030BF07E020BF1E4B1B7803B120BF01221B4B1A70184BD3F8803003F00303022BE7D0144B10
:4026C0001B68002BFBDA124BDB6813F0020F15D010490B6923F47F420D48C3681B0C1B0203F47F4313430B61D1F8903023F47F42C3681B0E42EA0323C1F89030044BDA68C9
:4027000022F00102DA6000225A6030BC704700BFE00023400000214000ED00E0784802080000000001B40248844601BC604700BFC50B081001B40248844601BC604700BF11
:402740004313081001B40248844601BC604700BF5D12081001B40248844601BC604700BF4B13081001B40248844601BC604700BFB109081001B40248844601BC604700BF6C
:402780006912081001B40248844601BC604700BF1108081001B40248844601BC604700BF290908100000000000000000000000000000000000000000000000000000000033
:4027C00000000000000000000000000000000000000000000000000000000000000000000000000000000000000000000000000000000000000000000000000000000000D9
:0200000490303A
:02000000F1AB62
:0200000490501A
:0C0000000005E20721002101E22612ABFE
:00000001FF